{
    "badBlocks_London" : {
        "_info" : {
            "comment" : "",
            "filling-rpc-server" : "evm version 1.10.4-unstable-642b9709-20210507",
            "filling-tool-version" : "retesteth-0.1.1-eip1559+commit.0f968735.Linux.g++",
            "lllcversion" : "Version: 0.5.14-develop.2021.5.6+commit.14c9d5de.Linux.g++",
            "source" : "src/BlockchainTestsFiller/InvalidBlocks/bcEIP1559/badBlocksFiller.yml",
            "sourceHash" : "7a32c28c92775a6436c0af8b2499d039b36ea7ad0eefca261de6dc4626a2c2bf"
        },
        "sealEngine" : "NoProof",
        "network" : "London",
        "pre" : {
            "0x1111111111111111111111111111111111111111" : {
                "balance" : "0x010000000000",
                "code" : "0xfe",
                "nonce" : "0x01",
                "storage" : {
                }
            },
            "0xa94f5374fce5edbc8e2a8697c15331677e6ebf0b" : {
                "balance" : "0x010000000000",
                "code" : "0x",
                "nonce" : "0x01",
                "storage" : {
                }
            },
            "0xd02d72e067e77158444ef2020ff2d325f929b363" : {
                "balance" : "0x01000000000000",
                "code" : "0x",
                "nonce" : "0x01",
                "storage" : {
                }
            }
        },
        "genesisBlockHeader" : {
            "bloom" : "0x00000000000000000000000000000000000000000000000000000000000000000000000000000000000000000000000000000000000000000000000000000000000000000000000000000000000000000000000000000000000000000000000000000000000000000000000000000000000000000000000000000000000000000000000000000000000000000000000000000000000000000000000000000000000000000000000000000000000000000000000000000000000000000000000000000000000000000000000000000000000000000000000000000000000000000000000000000000000000000000000000000000000000000000000000000000",
            "coinbase" : "0x2adc25665018aa1fe0e6bc666dac8fc2697ff9ba",
            "difficulty" : "0x020000",
            "extraData" : "0x42",
            "gasTarget" : "0x3d090000",
            "gasUsed" : "0x00",
            "hash" : "0x882f0847c9434b4949f100f9c0d4ab170710cbd07a62d5d0fe8b94c957c37de4",
            "mixHash" : "0x0000000000000000000000000000000000000000000000000000000000000000",
            "nonce" : "0x0000000000000000",
            "number" : "0x00",
            "parentHash" : "0x0000000000000000000000000000000000000000000000000000000000000000",
            "receiptTrie" : "0x56e81f171bcc55a6ff8345e692c0f86e5b48e01b996cadc001622fb5e363b421",
            "stateRoot" : "0x672261540625ead9824ab76c57b9a56bdd433568429133fc1cdc55af6431e1e5",
            "timestamp" : "0x03b6",
            "transactionsTrie" : "0x56e81f171bcc55a6ff8345e692c0f86e5b48e01b996cadc001622fb5e363b421",
            "uncleHash" : "0x1dcc4de8dec75d7aab85b567b6ccd41ad312451b948a7413f0a142fd40d49347",
            "baseFee" : "0x03e8"
        },
        "genesisRLP" : "0xf901fef901f9a00000000000000000000000000000000000000000000000000000000000000000a01dcc4de8dec75d7aab85b567b6ccd41ad312451b948a7413f0a142fd40d49347942adc25665018aa1fe0e6bc666dac8fc2697ff9baa0672261540625ead9824ab76c57b9a56bdd433568429133fc1cdc55af6431e1e5a056e81f171bcc55a6ff8345e692c0f86e5b48e01b996cadc001622fb5e363b421a056e81f171bcc55a6ff8345e692c0f86e5b48e01b996cadc001622fb5e363b421b90100000000000000000000000000000000000000000000000000000000000000000000000000000000000000000000000000000000000000000000000000000000000000000000000000000000000000000000000000000000000000000000000000000000000000000000000000000000000000000000000000000000000000000000000000000000000000000000000000000000000000000000000000000000000000000000000000000000000000000000000000000000000000000000000000000000000000000000000000000000000000000000000000000000000000000000000000000000000000000000000000000000000000000000000000000000008302000080843d090000808203b642a000000000000000000000000000000000000000000000000000000000000000008800000000000000008203e8c0c0",
        "blocks" : [
            {
                "chainname" : "default",
                "blocknumber" : "1",
                "expectException" : "baseFeeWrong",
                "rlp" : "0xf901fef901f9a0882f0847c9434b4949f100f9c0d4ab170710cbd07a62d5d0fe8b94c957c37de4a01dcc4de8dec75d7aab85b567b6ccd41ad312451b948a7413f0a142fd40d49347942adc25665018aa1fe0e6bc666dac8fc2697ff9baa0ca89d7d974d444df0d044c98b0f549b1831d6194cc5ced8eac4d17a12b2504d6a056e81f171bcc55a6ff8345e692c0f86e5b48e01b996cadc001622fb5e363b421a056e81f171bcc55a6ff8345e692c0f86e5b48e01b996cadc001622fb5e363b421b90100000000000000000000000000000000000000000000000000000000000000000000000000000000000000000000000000000000000000000000000000000000000000000000000000000000000000000000000000000000000000000000000000000000000000000000000000000000000000000000000000000000000000000000000000000000000000000000000000000000000000000000000000000000000000000000000000000000000000000000000000000000000000000000000000000000000000000000000000000000000000000000000000000000000000000000000000000000000000000000000000000000000000000000000000000000008302000001843d0900008082079e42a0000000000000000000000000000000000000000000000000000000000000000088000000000000000082036cc0c0"
            },
            {
                "chainname" : "default",
                "blocknumber" : "2",
                "expectException" : "baseFeeWrong",
                "rlp" : "0xf901fef901f9a0882f0847c9434b4949f100f9c0d4ab170710cbd07a62d5d0fe8b94c957c37de4a01dcc4de8dec75d7aab85b567b6ccd41ad312451b948a7413f0a142fd40d49347942adc25665018aa1fe0e6bc666dac8fc2697ff9baa0ca89d7d974d444df0d044c98b0f549b1831d6194cc5ced8eac4d17a12b2504d6a056e81f171bcc55a6ff8345e692c0f86e5b48e01b996cadc001622fb5e363b421a056e81f171bcc55a6ff8345e692c0f86e5b48e01b996cadc001622fb5e363b421b90100000000000000000000000000000000000000000000000000000000000000000000000000000000000000000000000000000000000000000000000000000000000000000000000000000000000000000000000000000000000000000000000000000000000000000000000000000000000000000000000000000000000000000000000000000000000000000000000000000000000000000000000000000000000000000000000000000000000000000000000000000000000000000000000000000000000000000000000000000000000000000000000000000000000000000000000000000000000000000000000000000000000000000000000000000000008302000001843d0900008082079e42a0000000000000000000000000000000000000000000000000000000000000000088000000000000000082036ac0c0"
            },
            {
                "chainname" : "default",
                "blocknumber" : "3",
                "uncleHeaders" : [
                ],
                "blockHeader" : {
                    "bloom" : "0x00000000000000000000000000000000000000000000000000000000000000000000000000000000000000000000000000000000000000000000000000000000000000000000000000000000000000000000000000000000000000000000000000000000000000000000000000000000000000000000000000000000000000000000000000000000000000000000000000000000000000000000000000000000000000000000000000000000000000000000000000000000000000000000000000000000000000000000000000000000000000000000000000000000000000000000000000000000000000000000000000000000000000000000000000000000",
                    "coinbase" : "0x2adc25665018aa1fe0e6bc666dac8fc2697ff9ba",
                    "difficulty" : "0x020000",
                    "extraData" : "0x42",
                    "gasTarget" : "0x3d090000",
                    "gasUsed" : "0x00",
                    "hash" : "0x61346f999f09d0e3326a02fce31c1e121003d76c0cb74929a6f7472a120f7f79",
                    "mixHash" : "0x0000000000000000000000000000000000000000000000000000000000000000",
                    "nonce" : "0x0000000000000000",
                    "number" : "0x01",
                    "parentHash" : "0x882f0847c9434b4949f100f9c0d4ab170710cbd07a62d5d0fe8b94c957c37de4",
                    "receiptTrie" : "0x56e81f171bcc55a6ff8345e692c0f86e5b48e01b996cadc001622fb5e363b421",
                    "stateRoot" : "0xca89d7d974d444df0d044c98b0f549b1831d6194cc5ced8eac4d17a12b2504d6",
                    "timestamp" : "0x079e",
                    "transactionsTrie" : "0x56e81f171bcc55a6ff8345e692c0f86e5b48e01b996cadc001622fb5e363b421",
                    "uncleHash" : "0x1dcc4de8dec75d7aab85b567b6ccd41ad312451b948a7413f0a142fd40d49347",
                    "baseFee" : "0x036b"
                },
                "transactions" : [
                ],
                "rlp" : "0xf901fef901f9a0882f0847c9434b4949f100f9c0d4ab170710cbd07a62d5d0fe8b94c957c37de4a01dcc4de8dec75d7aab85b567b6ccd41ad312451b948a7413f0a142fd40d49347942adc25665018aa1fe0e6bc666dac8fc2697ff9baa0ca89d7d974d444df0d044c98b0f549b1831d6194cc5ced8eac4d17a12b2504d6a056e81f171bcc55a6ff8345e692c0f86e5b48e01b996cadc001622fb5e363b421a056e81f171bcc55a6ff8345e692c0f86e5b48e01b996cadc001622fb5e363b421b90100000000000000000000000000000000000000000000000000000000000000000000000000000000000000000000000000000000000000000000000000000000000000000000000000000000000000000000000000000000000000000000000000000000000000000000000000000000000000000000000000000000000000000000000000000000000000000000000000000000000000000000000000000000000000000000000000000000000000000000000000000000000000000000000000000000000000000000000000000000000000000000000000000000000000000000000000000000000000000000000000000000000000000000000000000000008302000001843d0900008082079e42a0000000000000000000000000000000000000000000000000000000000000000088000000000000000082036bc0c0"
            },
            {
                "chainname" : "default",
                "blocknumber" : "4",
                "expectException" : "targetGasLow",
                "rlp" : "0xf901fef901f9a061346f999f09d0e3326a02fce31c1e121003d76c0cb74929a6f7472a120f7f79a01dcc4de8dec75d7aab85b567b6ccd41ad312451b948a7413f0a142fd40d49347942adc25665018aa1fe0e6bc666dac8fc2697ff9baa04e191c0e230ad283b8365aee83bbe00b354828f441abf99ab6ad27675cfcb434a056e81f171bcc55a6ff8345e692c0f86e5b48e01b996cadc001622fb5e363b421a056e81f171bcc55a6ff8345e692c0f86e5b48e01b996cadc001622fb5e363b421b90100000000000000000000000000000000000000000000000000000000000000000000000000000000000000000000000000000000000000000000000000000000000000000000000000000000000000000000000000000000000000000000000000000000000000000000000000000000000000000000000000000000000000000000000000000000000000000000000000000000000000000000000000000000000000000000000000000000000000000000000000000000000000000000000000000000000000000000000000000000000000000000000000000000000000000000000000000000000000000000000000000000000000000000000000000000008302000002843cf9bdbf80820b8642a000000000000000000000000000000000000000000000000000000000000000008800000000000000008202fec0c0"
            },
            {
                "chainname" : "default",
                "blocknumber" : "5",
                "uncleHeaders" : [
                ],
                "blockHeader" : {
                    "bloom" : "0x00000000000000000000000000000000000000000000000000000000000000000000000000000000000000000000000000000000000000000000000000000000000000000000000000000000000000000000000000000000000000000000000000000000000000000000000000000000000000000000000000000000000000000000000000000000000000000000000000000000000000000000000000000000000000000000000000000000000000000000000000000000000000000000000000000000000000000000000000000000000000000000000000000000000000000000000000000000000000000000000000000000000000000000000000000000",
                    "coinbase" : "0x2adc25665018aa1fe0e6bc666dac8fc2697ff9ba",
                    "difficulty" : "0x020000",
                    "extraData" : "0x42",
                    "gasTarget" : "0x3cf9bdc0",
                    "gasUsed" : "0x00",
                    "hash" : "0xc3d33cded2127b510893b32d7ad9b9db5f4a80a75d57d7611abaa0d9b73e98b3",
                    "mixHash" : "0x0000000000000000000000000000000000000000000000000000000000000000",
                    "nonce" : "0x0000000000000000",
                    "number" : "0x02",
                    "parentHash" : "0x61346f999f09d0e3326a02fce31c1e121003d76c0cb74929a6f7472a120f7f79",
                    "receiptTrie" : "0x56e81f171bcc55a6ff8345e692c0f86e5b48e01b996cadc001622fb5e363b421",
                    "stateRoot" : "0x4e191c0e230ad283b8365aee83bbe00b354828f441abf99ab6ad27675cfcb434",
                    "timestamp" : "0x0b86",
                    "transactionsTrie" : "0x56e81f171bcc55a6ff8345e692c0f86e5b48e01b996cadc001622fb5e363b421",
                    "uncleHash" : "0x1dcc4de8dec75d7aab85b567b6ccd41ad312451b948a7413f0a142fd40d49347",
                    "baseFee" : "0x02fe"
                },
                "transactions" : [
                ],
                "rlp" : "0xf901fef901f9a061346f999f09d0e3326a02fce31c1e121003d76c0cb74929a6f7472a120f7f79a01dcc4de8dec75d7aab85b567b6ccd41ad312451b948a7413f0a142fd40d49347942adc25665018aa1fe0e6bc666dac8fc2697ff9baa04e191c0e230ad283b8365aee83bbe00b354828f441abf99ab6ad27675cfcb434a056e81f171bcc55a6ff8345e692c0f86e5b48e01b996cadc001622fb5e363b421a056e81f171bcc55a6ff8345e692c0f86e5b48e01b996cadc001622fb5e363b421b90100000000000000000000000000000000000000000000000000000000000000000000000000000000000000000000000000000000000000000000000000000000000000000000000000000000000000000000000000000000000000000000000000000000000000000000000000000000000000000000000000000000000000000000000000000000000000000000000000000000000000000000000000000000000000000000000000000000000000000000000000000000000000000000000000000000000000000000000000000000000000000000000000000000000000000000000000000000000000000000000000000000000000000000000000000000008302000002843cf9bdc080820b8642a000000000000000000000000000000000000000000000000000000000000000008800000000000000008202fec0c0"
            },
            {
                "chainname" : "default",
                "blocknumber" : "6",
                "expectException" : "targetGasHigh",
                "rlp" : "0xf901fef901f9a0c3d33cded2127b510893b32d7ad9b9db5f4a80a75d57d7611abaa0d9b73e98b3a01dcc4de8dec75d7aab85b567b6ccd41ad312451b948a7413f0a142fd40d49347942adc25665018aa1fe0e6bc666dac8fc2697ff9baa04dd41959754ad34a13bb07da22ab506b0a8761c334f0b06dd70edc2307e18bbea056e81f171bcc55a6ff8345e692c0f86e5b48e01b996cadc001622fb5e363b421a056e81f171bcc55a6ff8345e692c0f86e5b48e01b996cadc001622fb5e363b421b90100000000000000000000000000000000000000000000000000000000000000000000000000000000000000000000000000000000000000000000000000000000000000000000000000000000000000000000000000000000000000000000000000000000000000000000000000000000000000000000000000000000000000000000000000000000000000000000000000000000000000000000000000000000000000000000000000000000000000000000000000000000000000000000000000000000000000000000000000000000000000000000000000000000000000000000000000000000000000000000000000000000000000000000000000000000008302000003843d08fc3080820f6e42a0000000000000000000000000000000000000000000000000000000000000000088000000000000000082029fc0c0"
            },
            {
                "chainname" : "default",
                "blocknumber" : "7",
                "uncleHeaders" : [
                ],
                "blockHeader" : {
                    "bloom" : "0x00000000000000000000000000000000000000000000000000000000000000000000000000000000000000000000000000000000000000000000000000000000000000000000000000000000000000000000000000000000000000000000000000000000000000000000000000000000000000000000000000000000000000000000000000000000000000000000000000000000000000000000000000000000000000000000000000000000000000000000000000000000000000000000000000000000000000000000000000000000000000000000000000000000000000000000000000000000000000000000000000000000000000000000000000000000",
                    "coinbase" : "0x2adc25665018aa1fe0e6bc666dac8fc2697ff9ba",
                    "difficulty" : "0x020000",
                    "extraData" : "0x42",
                    "gasTarget" : "0x3d08fc2f",
                    "gasUsed" : "0x00",
                    "hash" : "0xe01c4fd10274f0f98af4d927052e5ff9cbae739a155bb2e192f272a3062ea81d",
                    "mixHash" : "0x0000000000000000000000000000000000000000000000000000000000000000",
                    "nonce" : "0x0000000000000000",
                    "number" : "0x03",
                    "parentHash" : "0xc3d33cded2127b510893b32d7ad9b9db5f4a80a75d57d7611abaa0d9b73e98b3",
                    "receiptTrie" : "0x56e81f171bcc55a6ff8345e692c0f86e5b48e01b996cadc001622fb5e363b421",
                    "stateRoot" : "0x4dd41959754ad34a13bb07da22ab506b0a8761c334f0b06dd70edc2307e18bbe",
                    "timestamp" : "0x0f6e",
                    "transactionsTrie" : "0x56e81f171bcc55a6ff8345e692c0f86e5b48e01b996cadc001622fb5e363b421",
                    "uncleHash" : "0x1dcc4de8dec75d7aab85b567b6ccd41ad312451b948a7413f0a142fd40d49347",
                    "baseFee" : "0x029f"
                },
                "transactions" : [
                ],
                "rlp" : "0xf901fef901f9a0c3d33cded2127b510893b32d7ad9b9db5f4a80a75d57d7611abaa0d9b73e98b3a01dcc4de8dec75d7aab85b567b6ccd41ad312451b948a7413f0a142fd40d49347942adc25665018aa1fe0e6bc666dac8fc2697ff9baa04dd41959754ad34a13bb07da22ab506b0a8761c334f0b06dd70edc2307e18bbea056e81f171bcc55a6ff8345e692c0f86e5b48e01b996cadc001622fb5e363b421a056e81f171bcc55a6ff8345e692c0f86e5b48e01b996cadc001622fb5e363b421b90100000000000000000000000000000000000000000000000000000000000000000000000000000000000000000000000000000000000000000000000000000000000000000000000000000000000000000000000000000000000000000000000000000000000000000000000000000000000000000000000000000000000000000000000000000000000000000000000000000000000000000000000000000000000000000000000000000000000000000000000000000000000000000000000000000000000000000000000000000000000000000000000000000000000000000000000000000000000000000000000000000000000000000000000000000000008302000003843d08fc2f80820f6e42a0000000000000000000000000000000000000000000000000000000000000000088000000000000000082029fc0c0"
            },
            {
                "chainname" : "default",
                "blocknumber" : "8",
                "uncleHeaders" : [
                ],
                "blockHeader" : {
                    "bloom" : "0x00000000000000000000000000000000000000000000000000000000000000000000000000000000000000000000000000000000000000000000000000000000000000000000000000000000000000000000000000000000000000000000000000000000000000000000000000000000000000000000000000000000000000000000000000000000000000000000000000000000000000000000000000000000000000000000000000000000000000000000000000000000000000000000000000000000000000000000000000000000000000000000000000000000000000000000000000000000000000000000000000000000000000000000000000000000",
                    "coinbase" : "0x2adc25665018aa1fe0e6bc666dac8fc2697ff9ba",
                    "difficulty" : "0x020000",
                    "extraData" : "0x42",
                    "gasTarget" : "0x3d000000",
                    "gasUsed" : "0x7a000000",
                    "hash" : "0x60afa72ff29a327080d9ec5390b70aa7948702c3250a66fb61e7a4e176cca3fb",
                    "mixHash" : "0x0000000000000000000000000000000000000000000000000000000000000000",
                    "nonce" : "0x0000000000000000",
                    "number" : "0x04",
                    "parentHash" : "0xe01c4fd10274f0f98af4d927052e5ff9cbae739a155bb2e192f272a3062ea81d",
                    "receiptTrie" : "0xf2a026f78dc826f3d8f3458b97ba3751dba5339107e4ad775ea715f252ed93f2",
                    "stateRoot" : "0xd3a260aa20d79328cf400972aaa740fa5679c5ca9e2692fe657f78fe3af401ed",
                    "timestamp" : "0x1356",
                    "transactionsTrie" : "0xe16061f2b4725c5359c705c20ae300969f87fbbc704ef7dffacd57190b022c80",
                    "uncleHash" : "0x1dcc4de8dec75d7aab85b567b6ccd41ad312451b948a7413f0a142fd40d49347",
                    "baseFee" : "0x024c"
                },
                "transactions" : [
                    {
                        "data" : "0x",
                        "gasLimit" : "0x1e800000",
                        "nonce" : "0x01",
                        "to" : "0x1111111111111111111111111111111111111111",
                        "r" : "0x052347fc69486a20ce4235b1663ca87323c5888d40298c1a0098b40f8512924f",
                        "s" : "0x19dfbf4e480a266f8b4a0b6f80a63e6a3c9244b1b6ff4c238ec52a673e6c0b07",
                        "value" : "0x00",
                        "v" : "0x01",
                        "chainId" : "0x01",
                        "type" : "0x02",
                        "feeCap" : "0x0fa0",
                        "tip" : "0x00",
                        "accessList" : [
                        ]
                    },
                    {
                        "data" : "0x",
                        "gasLimit" : "0x1e800000",
                        "nonce" : "0x02",
                        "to" : "0x1111111111111111111111111111111111111111",
                        "r" : "0xd7d013ce8ac266006f144522eafec8d9bb5d80045d223a13626248ac3da1d1ff",
                        "s" : "0x524ae6423ffad078b3f2d42d72feea1747f1aa8cae921df49f12cbffcad7b5cb",
                        "value" : "0x00",
                        "v" : "0x01",
                        "chainId" : "0x01",
                        "type" : "0x02",
                        "feeCap" : "0x0fa0",
                        "tip" : "0x00",
                        "accessList" : [
                        ]
                    },
                    {
                        "data" : "0x",
                        "gasLimit" : "0x1e800000",
                        "nonce" : "0x03",
                        "to" : "0x1111111111111111111111111111111111111111",
                        "r" : "0x83ef7f86b6a415e53cdeabec812966410c8ed713765b8d755f4a6f0fe2918ff3",
                        "s" : "0x49a445d5f74e42afd03688ad9c9a689b65f542873c49df6422721b55997b243b",
                        "value" : "0x00",
                        "v" : "0x00",
                        "chainId" : "0x01",
                        "type" : "0x02",
                        "feeCap" : "0x0fa0",
                        "tip" : "0x00",
                        "accessList" : [
                        ]
                    },
                    {
                        "data" : "0x",
                        "gasLimit" : "0x1e800000",
                        "nonce" : "0x04",
                        "to" : "0x1111111111111111111111111111111111111111",
                        "r" : "0xd4cf450ef4c862fcf10bc490df6bc69a423b08504c52796dc50b12c39ba4828a",
                        "s" : "0x4359192670d5d57a4afe2ebbb3819c0d77596242af4ccf34397f13f13ca28f9e",
                        "value" : "0x00",
                        "v" : "0x00",
                        "chainId" : "0x01",
                        "type" : "0x02",
                        "feeCap" : "0x0fa0",
                        "tip" : "0x00",
                        "accessList" : [
                        ]
                    }
                ],
                "rlp" : "0xf903b0f901fda0e01c4fd10274f0f98af4d927052e5ff9cbae739a155bb2e192f272a3062ea81da01dcc4de8dec75d7aab85b567b6ccd41ad312451b948a7413f0a142fd40d49347942adc25665018aa1fe0e6bc666dac8fc2697ff9baa0d3a260aa20d79328cf400972aaa740fa5679c5ca9e2692fe657f78fe3af401eda0e16061f2b4725c5359c705c20ae300969f87fbbc704ef7dffacd57190b022c80a0f2a026f78dc826f3d8f3458b97ba3751dba5339107e4ad775ea715f252ed93f2b90100000000000000000000000000000000000000000000000000000000000000000000000000000000000000000000000000000000000000000000000000000000000000000000000000000000000000000000000000000000000000000000000000000000000000000000000000000000000000000000000000000000000000000000000000000000000000000000000000000000000000000000000000000000000000000000000000000000000000000000000000000000000000000000000000000000000000000000000000000000000000000000000000000000000000000000000000000000000000000000000000000000000000000000000000000000008302000004843d000000847a00000082135642a0000000000000000000000000000000000000000000000000000000000000000088000000000000000082024cf901acb86902f866010180820fa0841e8000009411111111111111111111111111111111111111118080c001a0052347fc69486a20ce4235b1663ca87323c5888d40298c1a0098b40f8512924fa019dfbf4e480a266f8b4a0b6f80a63e6a3c9244b1b6ff4c238ec52a673e6c0b07b86902f866010280820fa0841e8000009411111111111111111111111111111111111111118080c001a0d7d013ce8ac266006f144522eafec8d9bb5d80045d223a13626248ac3da1d1ffa0524ae6423ffad078b3f2d42d72feea1747f1aa8cae921df49f12cbffcad7b5cbb86902f866010380820fa0841e8000009411111111111111111111111111111111111111118080c080a083ef7f86b6a415e53cdeabec812966410c8ed713765b8d755f4a6f0fe2918ff3a049a445d5f74e42afd03688ad9c9a689b65f542873c49df6422721b55997b243bb86902f866010480820fa0841e8000009411111111111111111111111111111111111111118080c080a0d4cf450ef4c862fcf10bc490df6bc69a423b08504c52796dc50b12c39ba4828aa04359192670d5d57a4afe2ebbb3819c0d77596242af4ccf34397f13f13ca28f9ec0"
            },
            {
                "chainname" : "default",
                "blocknumber" : "9",
                "uncleHeaders" : [
                ],
                "blockHeader" : {
                    "bloom" : "0x00000000000000000000000000000000000000000000000000000000000000000000000000000000000000000000000000000000000000000000000000000000000000000000000000000000000000000000000000000000000000000000000000000000000000000000000000000000000000000000000000000000000000000000000000000000000000000000000000000000000000000000000000000000000000000000000000000000000000000000000000000000000000000000000000000000000000000000000000000000000000000000000000000000000000000000000000000000000000000000000000000000000000000000000000000000",
                    "coinbase" : "0x2adc25665018aa1fe0e6bc666dac8fc2697ff9ba",
                    "difficulty" : "0x020000",
                    "extraData" : "0x42",
                    "gasTarget" : "0x3d000000",
                    "gasUsed" : "0x5b800001",
                    "hash" : "0x86462f631a32ef21cff47463450476ca77180e1aeb7dfa713b58bc0460906ac6",
                    "mixHash" : "0x0000000000000000000000000000000000000000000000000000000000000000",
                    "nonce" : "0x0000000000000000",
                    "number" : "0x05",
                    "parentHash" : "0x60afa72ff29a327080d9ec5390b70aa7948702c3250a66fb61e7a4e176cca3fb",
                    "receiptTrie" : "0x25dfa96897a56d11d98bc475a744c584a239ba993530511381babbe7d105d583",
                    "stateRoot" : "0x3e41ec6883747f905568afd2f0ae63f1e7bb739229f2cb1a89c123bb94d8fcb5",
                    "timestamp" : "0x173e",
                    "transactionsTrie" : "0x12139e073ed2243deded54bdd547793e1885fb5ecf8fb3e647c5a3d5a67e325b",
                    "uncleHash" : "0x1dcc4de8dec75d7aab85b567b6ccd41ad312451b948a7413f0a142fd40d49347",
                    "baseFee" : "0x0295"
                },
                "transactions" : [
                    {
                        "data" : "0x",
                        "gasLimit" : "0x1e800001",
                        "nonce" : "0x05",
                        "to" : "0x1111111111111111111111111111111111111111",
                        "r" : "0xb07d3f541908614e8fce3b4f37fe20a57a54ae4eaf074edaa3efaab2675625ae",
                        "s" : "0x442131b563396f385f655609e4812f8da1bf012a7cf9c8a4252dddf1720419ec",
                        "value" : "0x00",
                        "v" : "0x00",
                        "chainId" : "0x01",
                        "type" : "0x02",
                        "feeCap" : "0x0fa0",
                        "tip" : "0x00",
                        "accessList" : [
                        ]
                    },
                    {
                        "data" : "0x",
                        "gasLimit" : "0x1e800000",
                        "nonce" : "0x06",
                        "to" : "0x1111111111111111111111111111111111111111",
                        "r" : "0xddfc7336db4e996f51296db658b52f97a20a55ccd878e1c286e1232846c0514b",
                        "s" : "0x2b895f073fcf7f962e58a9eef1c053288ea91230e2cb1ebb1d3ef5a9d79d470a",
                        "value" : "0x00",
                        "v" : "0x00",
                        "chainId" : "0x01",
                        "type" : "0x02",
                        "feeCap" : "0x0fa0",
                        "tip" : "0x00",
                        "accessList" : [
                        ]
                    },
                    {
                        "data" : "0x",
                        "gasLimit" : "0x1e800000",
                        "nonce" : "0x07",
                        "to" : "0x1111111111111111111111111111111111111111",
                        "r" : "0x0262726a1929c7754479e7fbf3cb180b857f79a8171d0405549b380a4e6aed11",
                        "s" : "0x2c1ed01fa50236eefbb5272b2ad59c10bc54a77b518d21d371c11555e7ed9cb3",
                        "value" : "0x00",
                        "v" : "0x00",
                        "chainId" : "0x01",
                        "type" : "0x02",
                        "feeCap" : "0x0fa0",
                        "tip" : "0x00",
                        "accessList" : [
                        ]
                    }
                ],
                "rlp" : "0xf90345f901fda060afa72ff29a327080d9ec5390b70aa7948702c3250a66fb61e7a4e176cca3fba01dcc4de8dec75d7aab85b567b6ccd41ad312451b948a7413f0a142fd40d49347942adc25665018aa1fe0e6bc666dac8fc2697ff9baa03e41ec6883747f905568afd2f0ae63f1e7bb739229f2cb1a89c123bb94d8fcb5a012139e073ed2243deded54bdd547793e1885fb5ecf8fb3e647c5a3d5a67e325ba025dfa96897a56d11d98bc475a744c584a239ba993530511381babbe7d105d583b90100000000000000000000000000000000000000000000000000000000000000000000000000000000000000000000000000000000000000000000000000000000000000000000000000000000000000000000000000000000000000000000000000000000000000000000000000000000000000000000000000000000000000000000000000000000000000000000000000000000000000000000000000000000000000000000000000000000000000000000000000000000000000000000000000000000000000000000000000000000000000000000000000000000000000000000000000000000000000000000000000000000000000000000000000000000008302000005843d000000845b80000182173e42a00000000000000000000000000000000000000000000000000000000000000000880000000000000000820295f90141b86902f866010580820fa0841e8000019411111111111111111111111111111111111111118080c080a0b07d3f541908614e8fce3b4f37fe20a57a54ae4eaf074edaa3efaab2675625aea0442131b563396f385f655609e4812f8da1bf012a7cf9c8a4252dddf1720419ecb86902f866010680820fa0841e8000009411111111111111111111111111111111111111118080c080a0ddfc7336db4e996f51296db658b52f97a20a55ccd878e1c286e1232846c0514ba02b895f073fcf7f962e58a9eef1c053288ea91230e2cb1ebb1d3ef5a9d79d470ab86902f866010780820fa0841e8000009411111111111111111111111111111111111111118080c080a00262726a1929c7754479e7fbf3cb180b857f79a8171d0405549b380a4e6aed11a02c1ed01fa50236eefbb5272b2ad59c10bc54a77b518d21d371c11555e7ed9cb3c0"
            }
        ],
        "postState" : {
            "0x1111111111111111111111111111111111111111" : {
                "code" : "0xfe",
                "nonce" : "0x01",
                "balance" : "0x010000000000",
                "storage" : {
                }
            },
            "0x2adc25665018aa1fe0e6bc666dac8fc2697ff9ba" : {
                "code" : "0x",
                "nonce" : "0x00",
                "balance" : "0x8ac7230489e80000",
                "storage" : {
                }
            },
            "0xa94f5374fce5edbc8e2a8697c15331677e6ebf0b" : {
                "code" : "0x",
                "nonce" : "0x01",
                "balance" : "0x010000000000",
                "storage" : {
                }
            },
            "0xd02d72e067e77158444ef2020ff2d325f929b363" : {
                "code" : "0x",
                "nonce" : "0x08",
                "balance" : "0xfdfb867ffd6b",
                "storage" : {
                }
            }
        },
        "lastblockhash" : "0x86462f631a32ef21cff47463450476ca77180e1aeb7dfa713b58bc0460906ac6"
    }
}