{
    "badBlocks_London" : {
        "_info" : {
            "comment" : "",
            "filling-rpc-server" : "evm version 1.10.4-unstable-24346e74-20210506",
            "filling-tool-version" : "retesteth-0.1.1-eip1559+commit.0f968735.Linux.g++",
            "lllcversion" : "Version: 0.5.14-develop.2021.5.6+commit.14c9d5de.Linux.g++",
            "source" : "src/BlockchainTestsFiller/InvalidBlocks/bcEIP1559/badBlocksFiller.yml",
            "sourceHash" : "115cb6ebe64c915234b82d49c5d9fabd9a9baffd539aa56095e6d06d5de8243a"
        },
        "sealEngine" : "NoProof",
        "network" : "London",
        "pre" : {
            "0x1111111111111111111111111111111111111111" : {
                "balance" : "0x010000000000",
                "code" : "0xfe",
                "nonce" : "0x01",
                "storage" : {
                }
            },
            "0xa94f5374fce5edbc8e2a8697c15331677e6ebf0b" : {
                "balance" : "0x010000000000",
                "code" : "0x",
                "nonce" : "0x01",
                "storage" : {
                }
            },
            "0xcccccccccccccccccccccccccccccccccccccccc" : {
                "balance" : "0x010000000000",
                "code" : "0x3a4355",
                "nonce" : "0x01",
                "storage" : {
                }
            },
            "0xd02d72e067e77158444ef2020ff2d325f929b363" : {
                "balance" : "0x01000000000000",
                "code" : "0x",
                "nonce" : "0x01",
                "storage" : {
                }
            }
        },
        "genesisBlockHeader" : {
            "bloom" : "0x00000000000000000000000000000000000000000000000000000000000000000000000000000000000000000000000000000000000000000000000000000000000000000000000000000000000000000000000000000000000000000000000000000000000000000000000000000000000000000000000000000000000000000000000000000000000000000000000000000000000000000000000000000000000000000000000000000000000000000000000000000000000000000000000000000000000000000000000000000000000000000000000000000000000000000000000000000000000000000000000000000000000000000000000000000000",
            "coinbase" : "0x2adc25665018aa1fe0e6bc666dac8fc2697ff9ba",
            "difficulty" : "0x020000",
            "extraData" : "0x42",
            "gasTarget" : "0x3d090000",
            "gasUsed" : "0x00",
            "hash" : "0x04b2554eb2a2b7dfafbbec094a4adc5d92da46a719d5d0035330150a705c766f",
            "mixHash" : "0x0000000000000000000000000000000000000000000000000000000000000000",
            "nonce" : "0x0000000000000000",
            "number" : "0x00",
            "parentHash" : "0x0000000000000000000000000000000000000000000000000000000000000000",
            "receiptTrie" : "0x56e81f171bcc55a6ff8345e692c0f86e5b48e01b996cadc001622fb5e363b421",
            "stateRoot" : "0xe9ed8f61038728dd18dc9797c671f1f2d45e90c815dea64d5c6305d987950a44",
            "timestamp" : "0x03b6",
            "transactionsTrie" : "0x56e81f171bcc55a6ff8345e692c0f86e5b48e01b996cadc001622fb5e363b421",
            "uncleHash" : "0x1dcc4de8dec75d7aab85b567b6ccd41ad312451b948a7413f0a142fd40d49347",
            "baseFee" : "0x03e8"
        },
        "genesisRLP" : "0xf901fef901f9a00000000000000000000000000000000000000000000000000000000000000000a01dcc4de8dec75d7aab85b567b6ccd41ad312451b948a7413f0a142fd40d49347942adc25665018aa1fe0e6bc666dac8fc2697ff9baa0e9ed8f61038728dd18dc9797c671f1f2d45e90c815dea64d5c6305d987950a44a056e81f171bcc55a6ff8345e692c0f86e5b48e01b996cadc001622fb5e363b421a056e81f171bcc55a6ff8345e692c0f86e5b48e01b996cadc001622fb5e363b421b90100000000000000000000000000000000000000000000000000000000000000000000000000000000000000000000000000000000000000000000000000000000000000000000000000000000000000000000000000000000000000000000000000000000000000000000000000000000000000000000000000000000000000000000000000000000000000000000000000000000000000000000000000000000000000000000000000000000000000000000000000000000000000000000000000000000000000000000000000000000000000000000000000000000000000000000000000000000000000000000000000000000000000000000000000000000008302000080843d090000808203b642a000000000000000000000000000000000000000000000000000000000000000008800000000000000008203e8c0c0",
        "blocks" : [
            {
                "chainname" : "default",
                "blocknumber" : "1",
                "expectException" : "baseFeeWrong",
                "rlp" : "0xf901fef901f9a004b2554eb2a2b7dfafbbec094a4adc5d92da46a719d5d0035330150a705c766fa01dcc4de8dec75d7aab85b567b6ccd41ad312451b948a7413f0a142fd40d49347942adc25665018aa1fe0e6bc666dac8fc2697ff9baa0cf15feb2299de1dd535cd3c7f73fded7ba623cc0113f17f48d012511b96e9ae7a056e81f171bcc55a6ff8345e692c0f86e5b48e01b996cadc001622fb5e363b421a056e81f171bcc55a6ff8345e692c0f86e5b48e01b996cadc001622fb5e363b421b90100000000000000000000000000000000000000000000000000000000000000000000000000000000000000000000000000000000000000000000000000000000000000000000000000000000000000000000000000000000000000000000000000000000000000000000000000000000000000000000000000000000000000000000000000000000000000000000000000000000000000000000000000000000000000000000000000000000000000000000000000000000000000000000000000000000000000000000000000000000000000000000000000000000000000000000000000000000000000000000000000000000000000000000000000000000008302000001843d0900008082079e42a0000000000000000000000000000000000000000000000000000000000000000088000000000000000082036cc0c0"
            },
            {
                "chainname" : "default",
                "blocknumber" : "2",
                "expectException" : "baseFeeWrong",
                "rlp" : "0xf901fef901f9a004b2554eb2a2b7dfafbbec094a4adc5d92da46a719d5d0035330150a705c766fa01dcc4de8dec75d7aab85b567b6ccd41ad312451b948a7413f0a142fd40d49347942adc25665018aa1fe0e6bc666dac8fc2697ff9baa0cf15feb2299de1dd535cd3c7f73fded7ba623cc0113f17f48d012511b96e9ae7a056e81f171bcc55a6ff8345e692c0f86e5b48e01b996cadc001622fb5e363b421a056e81f171bcc55a6ff8345e692c0f86e5b48e01b996cadc001622fb5e363b421b90100000000000000000000000000000000000000000000000000000000000000000000000000000000000000000000000000000000000000000000000000000000000000000000000000000000000000000000000000000000000000000000000000000000000000000000000000000000000000000000000000000000000000000000000000000000000000000000000000000000000000000000000000000000000000000000000000000000000000000000000000000000000000000000000000000000000000000000000000000000000000000000000000000000000000000000000000000000000000000000000000000000000000000000000000000000008302000001843d0900008082079e42a0000000000000000000000000000000000000000000000000000000000000000088000000000000000082036ac0c0"
            },
            {
                "chainname" : "default",
                "blocknumber" : "3",
                "uncleHeaders" : [
                ],
                "blockHeader" : {
                    "bloom" : "0x00000000000000000000000000000000000000000000000000000000000000000000000000000000000000000000000000000000000000000000000000000000000000000000000000000000000000000000000000000000000000000000000000000000000000000000000000000000000000000000000000000000000000000000000000000000000000000000000000000000000000000000000000000000000000000000000000000000000000000000000000000000000000000000000000000000000000000000000000000000000000000000000000000000000000000000000000000000000000000000000000000000000000000000000000000000",
                    "coinbase" : "0x2adc25665018aa1fe0e6bc666dac8fc2697ff9ba",
                    "difficulty" : "0x020000",
                    "extraData" : "0x42",
                    "gasTarget" : "0x3d090000",
                    "gasUsed" : "0x00",
                    "hash" : "0x1f76d51968c65e30dc72c21b592a61b219f2ed2718766820172d8c934aa8c393",
                    "mixHash" : "0x0000000000000000000000000000000000000000000000000000000000000000",
                    "nonce" : "0x0000000000000000",
                    "number" : "0x01",
                    "parentHash" : "0x04b2554eb2a2b7dfafbbec094a4adc5d92da46a719d5d0035330150a705c766f",
                    "receiptTrie" : "0x56e81f171bcc55a6ff8345e692c0f86e5b48e01b996cadc001622fb5e363b421",
                    "stateRoot" : "0xcf15feb2299de1dd535cd3c7f73fded7ba623cc0113f17f48d012511b96e9ae7",
                    "timestamp" : "0x079e",
                    "transactionsTrie" : "0x56e81f171bcc55a6ff8345e692c0f86e5b48e01b996cadc001622fb5e363b421",
                    "uncleHash" : "0x1dcc4de8dec75d7aab85b567b6ccd41ad312451b948a7413f0a142fd40d49347",
                    "baseFee" : "0x036b"
                },
                "transactions" : [
                ],
                "rlp" : "0xf901fef901f9a004b2554eb2a2b7dfafbbec094a4adc5d92da46a719d5d0035330150a705c766fa01dcc4de8dec75d7aab85b567b6ccd41ad312451b948a7413f0a142fd40d49347942adc25665018aa1fe0e6bc666dac8fc2697ff9baa0cf15feb2299de1dd535cd3c7f73fded7ba623cc0113f17f48d012511b96e9ae7a056e81f171bcc55a6ff8345e692c0f86e5b48e01b996cadc001622fb5e363b421a056e81f171bcc55a6ff8345e692c0f86e5b48e01b996cadc001622fb5e363b421b90100000000000000000000000000000000000000000000000000000000000000000000000000000000000000000000000000000000000000000000000000000000000000000000000000000000000000000000000000000000000000000000000000000000000000000000000000000000000000000000000000000000000000000000000000000000000000000000000000000000000000000000000000000000000000000000000000000000000000000000000000000000000000000000000000000000000000000000000000000000000000000000000000000000000000000000000000000000000000000000000000000000000000000000000000000000008302000001843d0900008082079e42a0000000000000000000000000000000000000000000000000000000000000000088000000000000000082036bc0c0"
            },
            {
                "chainname" : "default",
                "blocknumber" : "4",
                "expectException" : "targetGasLow",
                "rlp" : "0xf901fef901f9a01f76d51968c65e30dc72c21b592a61b219f2ed2718766820172d8c934aa8c393a01dcc4de8dec75d7aab85b567b6ccd41ad312451b948a7413f0a142fd40d49347942adc25665018aa1fe0e6bc666dac8fc2697ff9baa02cabfebee22fa3cf0e8bd45c716c23e8e76bba4c0c4f25e26a0a29ed80da0ac0a056e81f171bcc55a6ff8345e692c0f86e5b48e01b996cadc001622fb5e363b421a056e81f171bcc55a6ff8345e692c0f86e5b48e01b996cadc001622fb5e363b421b90100000000000000000000000000000000000000000000000000000000000000000000000000000000000000000000000000000000000000000000000000000000000000000000000000000000000000000000000000000000000000000000000000000000000000000000000000000000000000000000000000000000000000000000000000000000000000000000000000000000000000000000000000000000000000000000000000000000000000000000000000000000000000000000000000000000000000000000000000000000000000000000000000000000000000000000000000000000000000000000000000000000000000000000000000000000008302000002843cf9bdbf80820b8642a000000000000000000000000000000000000000000000000000000000000000008800000000000000008202fec0c0"
            },
            {
                "chainname" : "default",
                "blocknumber" : "5",
                "uncleHeaders" : [
                ],
                "blockHeader" : {
                    "bloom" : "0x00000000000000000000000000000000000000000000000000000000000000000000000000000000000000000000000000000000000000000000000000000000000000000000000000000000000000000000000000000000000000000000000000000000000000000000000000000000000000000000000000000000000000000000000000000000000000000000000000000000000000000000000000000000000000000000000000000000000000000000000000000000000000000000000000000000000000000000000000000000000000000000000000000000000000000000000000000000000000000000000000000000000000000000000000000000",
                    "coinbase" : "0x2adc25665018aa1fe0e6bc666dac8fc2697ff9ba",
                    "difficulty" : "0x020000",
                    "extraData" : "0x42",
                    "gasTarget" : "0x3cf9bdc0",
                    "gasUsed" : "0x00",
                    "hash" : "0xcc33d20049e23882ffad3fe96c0459db9af9a28e000ef4f6d9819a070960768e",
                    "mixHash" : "0x0000000000000000000000000000000000000000000000000000000000000000",
                    "nonce" : "0x0000000000000000",
                    "number" : "0x02",
                    "parentHash" : "0x1f76d51968c65e30dc72c21b592a61b219f2ed2718766820172d8c934aa8c393",
                    "receiptTrie" : "0x56e81f171bcc55a6ff8345e692c0f86e5b48e01b996cadc001622fb5e363b421",
                    "stateRoot" : "0x2cabfebee22fa3cf0e8bd45c716c23e8e76bba4c0c4f25e26a0a29ed80da0ac0",
                    "timestamp" : "0x0b86",
                    "transactionsTrie" : "0x56e81f171bcc55a6ff8345e692c0f86e5b48e01b996cadc001622fb5e363b421",
                    "uncleHash" : "0x1dcc4de8dec75d7aab85b567b6ccd41ad312451b948a7413f0a142fd40d49347",
                    "baseFee" : "0x02fe"
                },
                "transactions" : [
                ],
                "rlp" : "0xf901fef901f9a01f76d51968c65e30dc72c21b592a61b219f2ed2718766820172d8c934aa8c393a01dcc4de8dec75d7aab85b567b6ccd41ad312451b948a7413f0a142fd40d49347942adc25665018aa1fe0e6bc666dac8fc2697ff9baa02cabfebee22fa3cf0e8bd45c716c23e8e76bba4c0c4f25e26a0a29ed80da0ac0a056e81f171bcc55a6ff8345e692c0f86e5b48e01b996cadc001622fb5e363b421a056e81f171bcc55a6ff8345e692c0f86e5b48e01b996cadc001622fb5e363b421b90100000000000000000000000000000000000000000000000000000000000000000000000000000000000000000000000000000000000000000000000000000000000000000000000000000000000000000000000000000000000000000000000000000000000000000000000000000000000000000000000000000000000000000000000000000000000000000000000000000000000000000000000000000000000000000000000000000000000000000000000000000000000000000000000000000000000000000000000000000000000000000000000000000000000000000000000000000000000000000000000000000000000000000000000000000000008302000002843cf9bdc080820b8642a000000000000000000000000000000000000000000000000000000000000000008800000000000000008202fec0c0"
            },
            {
                "chainname" : "default",
                "blocknumber" : "6",
                "expectException" : "targetGasHigh",
                "rlp" : "0xf901fef901f9a0cc33d20049e23882ffad3fe96c0459db9af9a28e000ef4f6d9819a070960768ea01dcc4de8dec75d7aab85b567b6ccd41ad312451b948a7413f0a142fd40d49347942adc25665018aa1fe0e6bc666dac8fc2697ff9baa0e2116b6da82809d2cbf33e6f9378474685aa015b18467c4d8d3012f1cdae98a6a056e81f171bcc55a6ff8345e692c0f86e5b48e01b996cadc001622fb5e363b421a056e81f171bcc55a6ff8345e692c0f86e5b48e01b996cadc001622fb5e363b421b90100000000000000000000000000000000000000000000000000000000000000000000000000000000000000000000000000000000000000000000000000000000000000000000000000000000000000000000000000000000000000000000000000000000000000000000000000000000000000000000000000000000000000000000000000000000000000000000000000000000000000000000000000000000000000000000000000000000000000000000000000000000000000000000000000000000000000000000000000000000000000000000000000000000000000000000000000000000000000000000000000000000000000000000000000000000008302000003843d08fc3080820f6e42a0000000000000000000000000000000000000000000000000000000000000000088000000000000000082029fc0c0"
            },
            {
                "chainname" : "default",
                "blocknumber" : "7",
                "uncleHeaders" : [
                ],
                "blockHeader" : {
                    "bloom" : "0x00000000000000000000000000000000000000000000000000000000000000000000000000000000000000000000000000000000000000000000000000000000000000000000000000000000000000000000000000000000000000000000000000000000000000000000000000000000000000000000000000000000000000000000000000000000000000000000000000000000000000000000000000000000000000000000000000000000000000000000000000000000000000000000000000000000000000000000000000000000000000000000000000000000000000000000000000000000000000000000000000000000000000000000000000000000",
                    "coinbase" : "0x2adc25665018aa1fe0e6bc666dac8fc2697ff9ba",
                    "difficulty" : "0x020000",
                    "extraData" : "0x42",
                    "gasTarget" : "0x3d08fc2f",
                    "gasUsed" : "0x00",
                    "hash" : "0x398b86c63d2565df6e7ec173d80b9aef85a92e6e6ba576f150d730c1c896bb95",
                    "mixHash" : "0x0000000000000000000000000000000000000000000000000000000000000000",
                    "nonce" : "0x0000000000000000",
                    "number" : "0x03",
                    "parentHash" : "0xcc33d20049e23882ffad3fe96c0459db9af9a28e000ef4f6d9819a070960768e",
                    "receiptTrie" : "0x56e81f171bcc55a6ff8345e692c0f86e5b48e01b996cadc001622fb5e363b421",
                    "stateRoot" : "0xe2116b6da82809d2cbf33e6f9378474685aa015b18467c4d8d3012f1cdae98a6",
                    "timestamp" : "0x0f6e",
                    "transactionsTrie" : "0x56e81f171bcc55a6ff8345e692c0f86e5b48e01b996cadc001622fb5e363b421",
                    "uncleHash" : "0x1dcc4de8dec75d7aab85b567b6ccd41ad312451b948a7413f0a142fd40d49347",
                    "baseFee" : "0x029f"
                },
                "transactions" : [
                ],
                "rlp" : "0xf901fef901f9a0cc33d20049e23882ffad3fe96c0459db9af9a28e000ef4f6d9819a070960768ea01dcc4de8dec75d7aab85b567b6ccd41ad312451b948a7413f0a142fd40d49347942adc25665018aa1fe0e6bc666dac8fc2697ff9baa0e2116b6da82809d2cbf33e6f9378474685aa015b18467c4d8d3012f1cdae98a6a056e81f171bcc55a6ff8345e692c0f86e5b48e01b996cadc001622fb5e363b421a056e81f171bcc55a6ff8345e692c0f86e5b48e01b996cadc001622fb5e363b421b90100000000000000000000000000000000000000000000000000000000000000000000000000000000000000000000000000000000000000000000000000000000000000000000000000000000000000000000000000000000000000000000000000000000000000000000000000000000000000000000000000000000000000000000000000000000000000000000000000000000000000000000000000000000000000000000000000000000000000000000000000000000000000000000000000000000000000000000000000000000000000000000000000000000000000000000000000000000000000000000000000000000000000000000000000000000008302000003843d08fc2f80820f6e42a0000000000000000000000000000000000000000000000000000000000000000088000000000000000082029fc0c0"
            }
        ],
        "postState" : {
            "0x1111111111111111111111111111111111111111" : {
                "code" : "0xfe",
                "nonce" : "0x01",
                "balance" : "0x010000000000",
                "storage" : {
                }
            },
            "0x2adc25665018aa1fe0e6bc666dac8fc2697ff9ba" : {
                "code" : "0x",
                "nonce" : "0x00",
                "balance" : "0x53444835ec580000",
                "storage" : {
                }
            },
            "0xa94f5374fce5edbc8e2a8697c15331677e6ebf0b" : {
                "code" : "0x",
                "nonce" : "0x01",
                "balance" : "0x010000000000",
                "storage" : {
                }
            },
            "0xcccccccccccccccccccccccccccccccccccccccc" : {
                "code" : "0x3a4355",
                "nonce" : "0x01",
                "balance" : "0x010000000000",
                "storage" : {
                }
            },
            "0xd02d72e067e77158444ef2020ff2d325f929b363" : {
                "code" : "0x",
                "nonce" : "0x01",
                "balance" : "0x01000000000000",
                "storage" : {
                }
            }
        },
        "lastblockhash" : "0x398b86c63d2565df6e7ec173d80b9aef85a92e6e6ba576f150d730c1c896bb95"
    }
}