{
    "highDemand_London" : {
        "_info" : {
            "comment" : "",
            "filling-rpc-server" : "evm version 1.10.4-unstable-642b9709-20210507",
            "filling-tool-version" : "retesteth-0.1.1-eip1559+commit.0f968735.Linux.g++",
            "lllcversion" : "Version: 0.5.14-develop.2021.5.6+commit.14c9d5de.Linux.g++",
            "source" : "src/BlockchainTestsFiller/ValidBlocks/bcEIP1559/highDemandFiller.yml",
            "sourceHash" : "fccb64fd2624d6a887f8ae606a9e966fd8d84180043483ca66c7dc2376f34b9f"
        },
        "sealEngine" : "NoProof",
        "network" : "London",
        "pre" : {
            "0x1111111111111111111111111111111111111111" : {
                "balance" : "0x010000000000",
                "code" : "0xfe",
                "nonce" : "0x01",
                "storage" : {
                }
            },
            "0xa94f5374fce5edbc8e2a8697c15331677e6ebf0b" : {
                "balance" : "0x010000000000000000",
                "code" : "0x",
                "nonce" : "0x00",
                "storage" : {
                }
            },
            "0xcccccccccccccccccccccccccccccccccccccccc" : {
                "balance" : "0x010000000000",
                "code" : "0x3a4355",
                "nonce" : "0x01",
                "storage" : {
                }
            },
            "0xd02d72e067e77158444ef2020ff2d325f929b363" : {
                "balance" : "0x010000000000000000",
                "code" : "0x",
                "nonce" : "0x01",
                "storage" : {
                }
            }
        },
        "genesisBlockHeader" : {
            "bloom" : "0x00000000000000000000000000000000000000000000000000000000000000000000000000000000000000000000000000000000000000000000000000000000000000000000000000000000000000000000000000000000000000000000000000000000000000000000000000000000000000000000000000000000000000000000000000000000000000000000000000000000000000000000000000000000000000000000000000000000000000000000000000000000000000000000000000000000000000000000000000000000000000000000000000000000000000000000000000000000000000000000000000000000000000000000000000000000",
            "coinbase" : "0x2adc25665018aa1fe0e6bc666dac8fc2697ff9ba",
            "difficulty" : "0x020000",
            "extraData" : "0x42",
            "gasTarget" : "0x0186a0",
            "gasUsed" : "0x00",
            "hash" : "0x9ef89c122498f84c18a403286137f9652cf09d08b1d326fc5fb946d2322e8a37",
            "mixHash" : "0x0000000000000000000000000000000000000000000000000000000000000000",
            "nonce" : "0x0000000000000000",
            "number" : "0x00",
            "parentHash" : "0x0000000000000000000000000000000000000000000000000000000000000000",
            "receiptTrie" : "0x56e81f171bcc55a6ff8345e692c0f86e5b48e01b996cadc001622fb5e363b421",
            "stateRoot" : "0x8cc13eb1b10895b8f84397fe2b4dcff28ea3c4f88bed2d29fcf43eb557544ec1",
            "timestamp" : "0x03b6",
            "transactionsTrie" : "0x56e81f171bcc55a6ff8345e692c0f86e5b48e01b996cadc001622fb5e363b421",
            "uncleHash" : "0x1dcc4de8dec75d7aab85b567b6ccd41ad312451b948a7413f0a142fd40d49347",
            "baseFee" : "0x03e8"
        },
        "genesisRLP" : "0xf901fdf901f8a00000000000000000000000000000000000000000000000000000000000000000a01dcc4de8dec75d7aab85b567b6ccd41ad312451b948a7413f0a142fd40d49347942adc25665018aa1fe0e6bc666dac8fc2697ff9baa08cc13eb1b10895b8f84397fe2b4dcff28ea3c4f88bed2d29fcf43eb557544ec1a056e81f171bcc55a6ff8345e692c0f86e5b48e01b996cadc001622fb5e363b421a056e81f171bcc55a6ff8345e692c0f86e5b48e01b996cadc001622fb5e363b421b90100000000000000000000000000000000000000000000000000000000000000000000000000000000000000000000000000000000000000000000000000000000000000000000000000000000000000000000000000000000000000000000000000000000000000000000000000000000000000000000000000000000000000000000000000000000000000000000000000000000000000000000000000000000000000000000000000000000000000000000000000000000000000000000000000000000000000000000000000000000000000000000000000000000000000000000000000000000000000000000000000000000000000000000000000000000008302000080830186a0808203b642a000000000000000000000000000000000000000000000000000000000000000008800000000000000008203e8c0c0",
        "blocks" : [
            {
                "chainname" : "default",
                "blocknumber" : "1",
                "uncleHeaders" : [
                ],
                "blockHeader" : {
                    "bloom" : "0x00000000000000000000000000000000000000000000000000000000000000000000000000000000000000000000000000000000000000000000000000000000000000000000000000000000000000000000000000000000000000000000000000000000000000000000000000000000000000000000000000000000000000000000000000000000000000000000000000000000000000000000000000000000000000000000000000000000000000000000000000000000000000000000000000000000000000000000000000000000000000000000000000000000000000000000000000000000000000000000000000000000000000000000000000000000",
                    "coinbase" : "0x2adc25665018aa1fe0e6bc666dac8fc2697ff9ba",
                    "difficulty" : "0x020000",
                    "extraData" : "0x42",
                    "gasTarget" : "0x0186a0",
                    "gasUsed" : "0x030d40",
                    "hash" : "0xab7b2ee16cef4b3abc5ce3e2229df95e3588e5a554dc30077da75a26954b8587",
                    "mixHash" : "0x0000000000000000000000000000000000000000000000000000000000000000",
                    "nonce" : "0x0000000000000000",
                    "number" : "0x01",
                    "parentHash" : "0x9ef89c122498f84c18a403286137f9652cf09d08b1d326fc5fb946d2322e8a37",
                    "receiptTrie" : "0x27a730bd98d51b4d50707785f23033b868e048c5dee0a47bbea6ee44e2b15055",
                    "stateRoot" : "0x28cdd76ad2bc89b4c42095251df1ac7476c6970b2098d384be3905143675f579",
                    "timestamp" : "0x079e",
                    "transactionsTrie" : "0x7c2f9867436a2727c2772396682784538a9e983e3afd74b0a94cf407462a7b48",
                    "uncleHash" : "0x1dcc4de8dec75d7aab85b567b6ccd41ad312451b948a7413f0a142fd40d49347",
                    "baseFee" : "0x036b"
                },
                "transactions" : [
                    {
                        "data" : "0x",
                        "gasLimit" : "0xa860",
                        "nonce" : "0x01",
                        "to" : "0xcccccccccccccccccccccccccccccccccccccccc",
                        "r" : "0x96481ad6d23621e3f72254405bebfbe22440b268f1f7f2e806828bede9e17b78",
                        "s" : "0x0831f582ca976cf2106561f3d43cf8ce8a451497b14c5344a5741bfefa878126",
                        "value" : "0x00",
                        "v" : "0x01",
                        "chainId" : "0x01",
                        "type" : "0x02",
                        "feeCap" : "0x07d0",
                        "tip" : "0x00",
                        "accessList" : [
                        ]
                    },
                    {
                        "data" : "0x",
                        "gasLimit" : "0x0264e0",
                        "nonce" : "0x02",
                        "to" : "0x1111111111111111111111111111111111111111",
                        "r" : "0x497743670c6d10a6d8b972ac63cc5b4cba0f26d7483393a1c0ccf34b0b0875a4",
                        "s" : "0x01f88de01a49e505fbdbc6825ba8911c356d1f13414b91ae32ab024f93c48cee",
                        "value" : "0x00",
                        "v" : "0x00",
                        "chainId" : "0x01",
                        "type" : "0x02",
                        "feeCap" : "0x07d0",
                        "tip" : "0x00",
                        "accessList" : [
                        ]
                    }
                ],
                "rlp" : "0xf902d4f901fba09ef89c122498f84c18a403286137f9652cf09d08b1d326fc5fb946d2322e8a37a01dcc4de8dec75d7aab85b567b6ccd41ad312451b948a7413f0a142fd40d49347942adc25665018aa1fe0e6bc666dac8fc2697ff9baa028cdd76ad2bc89b4c42095251df1ac7476c6970b2098d384be3905143675f579a07c2f9867436a2727c2772396682784538a9e983e3afd74b0a94cf407462a7b48a027a730bd98d51b4d50707785f23033b868e048c5dee0a47bbea6ee44e2b15055b90100000000000000000000000000000000000000000000000000000000000000000000000000000000000000000000000000000000000000000000000000000000000000000000000000000000000000000000000000000000000000000000000000000000000000000000000000000000000000000000000000000000000000000000000000000000000000000000000000000000000000000000000000000000000000000000000000000000000000000000000000000000000000000000000000000000000000000000000000000000000000000000000000000000000000000000000000000000000000000000000000000000000000000000000000000000008302000001830186a083030d4082079e42a0000000000000000000000000000000000000000000000000000000000000000088000000000000000082036bf8d3b86702f8640101808207d082a86094cccccccccccccccccccccccccccccccccccccccc8080c001a096481ad6d23621e3f72254405bebfbe22440b268f1f7f2e806828bede9e17b78a00831f582ca976cf2106561f3d43cf8ce8a451497b14c5344a5741bfefa878126b86802f8650102808207d0830264e09411111111111111111111111111111111111111118080c080a0497743670c6d10a6d8b972ac63cc5b4cba0f26d7483393a1c0ccf34b0b0875a4a001f88de01a49e505fbdbc6825ba8911c356d1f13414b91ae32ab024f93c48ceec0"
            },
            {
                "chainname" : "default",
                "blocknumber" : "2",
                "uncleHeaders" : [
                ],
                "blockHeader" : {
                    "bloom" : "0x00000000000000000000000000000000000000000000000000000000000000000000000000000000000000000000000000000000000000000000000000000000000000000000000000000000000000000000000000000000000000000000000000000000000000000000000000000000000000000000000000000000000000000000000000000000000000000000000000000000000000000000000000000000000000000000000000000000000000000000000000000000000000000000000000000000000000000000000000000000000000000000000000000000000000000000000000000000000000000000000000000000000000000000000000000000",
                    "coinbase" : "0x2adc25665018aa1fe0e6bc666dac8fc2697ff9ba",
                    "difficulty" : "0x020000",
                    "extraData" : "0x42",
                    "gasTarget" : "0x0186a0",
                    "gasUsed" : "0x030d40",
                    "hash" : "0xb93de1acee09f367a1253d7edb17ea7a61dfa38912082ad31ef27da2df1b42e2",
                    "mixHash" : "0x0000000000000000000000000000000000000000000000000000000000000000",
                    "nonce" : "0x0000000000000000",
                    "number" : "0x02",
                    "parentHash" : "0xab7b2ee16cef4b3abc5ce3e2229df95e3588e5a554dc30077da75a26954b8587",
                    "receiptTrie" : "0x27a730bd98d51b4d50707785f23033b868e048c5dee0a47bbea6ee44e2b15055",
                    "stateRoot" : "0x36c5be9d6f8f24cf3451a70a5ac731b9b93a6315ce2aa717f06cb542e68883d8",
                    "timestamp" : "0x0b86",
                    "transactionsTrie" : "0x0a01a4b9ac06cf2f140639d1de214a9503c6f217f5f1a5485c4d47e739742b45",
                    "uncleHash" : "0x1dcc4de8dec75d7aab85b567b6ccd41ad312451b948a7413f0a142fd40d49347",
                    "baseFee" : "0x03d8"
                },
                "transactions" : [
                    {
                        "data" : "0x",
                        "gasLimit" : "0xa860",
                        "nonce" : "0x03",
                        "to" : "0xcccccccccccccccccccccccccccccccccccccccc",
                        "r" : "0x35bd35f4dbe9020afbfa2057a3a7e799a291e97a3fd9383d64206e4ff4823190",
                        "s" : "0x0e5eafb0b0a646b25a0d4f427d37acad1de036ad51c6cecf39480b2455aa5810",
                        "value" : "0x00",
                        "v" : "0x00",
                        "chainId" : "0x01",
                        "type" : "0x02",
                        "feeCap" : "0x07d0",
                        "tip" : "0x00",
                        "accessList" : [
                        ]
                    },
                    {
                        "data" : "0x",
                        "gasLimit" : "0x0264e0",
                        "nonce" : "0x04",
                        "to" : "0x1111111111111111111111111111111111111111",
                        "r" : "0x33a29491ef7191285e2897369459d527766a828b8e87250d9e86691f5e637783",
                        "s" : "0x7fc62e01166db960348289506d4db99676e1896604adda3fc4b4e33a86a1acb2",
                        "value" : "0x00",
                        "v" : "0x00",
                        "chainId" : "0x01",
                        "type" : "0x02",
                        "feeCap" : "0x07d0",
                        "tip" : "0x00",
                        "accessList" : [
                        ]
                    }
                ],
                "rlp" : "0xf902d4f901fba0ab7b2ee16cef4b3abc5ce3e2229df95e3588e5a554dc30077da75a26954b8587a01dcc4de8dec75d7aab85b567b6ccd41ad312451b948a7413f0a142fd40d49347942adc25665018aa1fe0e6bc666dac8fc2697ff9baa036c5be9d6f8f24cf3451a70a5ac731b9b93a6315ce2aa717f06cb542e68883d8a00a01a4b9ac06cf2f140639d1de214a9503c6f217f5f1a5485c4d47e739742b45a027a730bd98d51b4d50707785f23033b868e048c5dee0a47bbea6ee44e2b15055b90100000000000000000000000000000000000000000000000000000000000000000000000000000000000000000000000000000000000000000000000000000000000000000000000000000000000000000000000000000000000000000000000000000000000000000000000000000000000000000000000000000000000000000000000000000000000000000000000000000000000000000000000000000000000000000000000000000000000000000000000000000000000000000000000000000000000000000000000000000000000000000000000000000000000000000000000000000000000000000000000000000000000000000000000000000000008302000002830186a083030d40820b8642a000000000000000000000000000000000000000000000000000000000000000008800000000000000008203d8f8d3b86702f8640103808207d082a86094cccccccccccccccccccccccccccccccccccccccc8080c080a035bd35f4dbe9020afbfa2057a3a7e799a291e97a3fd9383d64206e4ff4823190a00e5eafb0b0a646b25a0d4f427d37acad1de036ad51c6cecf39480b2455aa5810b86802f8650104808207d0830264e09411111111111111111111111111111111111111118080c080a033a29491ef7191285e2897369459d527766a828b8e87250d9e86691f5e637783a07fc62e01166db960348289506d4db99676e1896604adda3fc4b4e33a86a1acb2c0"
            },
            {
                "chainname" : "default",
                "blocknumber" : "3",
                "uncleHeaders" : [
                ],
                "blockHeader" : {
                    "bloom" : "0x00000000000000000000000000000000000000000000000000000000000000000000000000000000000000000000000000000000000000000000000000000000000000000000000000000000000000000000000000000000000000000000000000000000000000000000000000000000000000000000000000000000000000000000000000000000000000000000000000000000000000000000000000000000000000000000000000000000000000000000000000000000000000000000000000000000000000000000000000000000000000000000000000000000000000000000000000000000000000000000000000000000000000000000000000000000",
                    "coinbase" : "0x2adc25665018aa1fe0e6bc666dac8fc2697ff9ba",
                    "difficulty" : "0x020000",
                    "extraData" : "0x42",
                    "gasTarget" : "0x0186a0",
                    "gasUsed" : "0x030d40",
                    "hash" : "0x37bfb92317e5808e7f09312cf7d00ea179cbe3a2004a02a8690dd22b77a3b536",
                    "mixHash" : "0x0000000000000000000000000000000000000000000000000000000000000000",
                    "nonce" : "0x0000000000000000",
                    "number" : "0x03",
                    "parentHash" : "0xb93de1acee09f367a1253d7edb17ea7a61dfa38912082ad31ef27da2df1b42e2",
                    "receiptTrie" : "0x27a730bd98d51b4d50707785f23033b868e048c5dee0a47bbea6ee44e2b15055",
                    "stateRoot" : "0xd977ddb18d7cc50ba3b38cdea5045e4a476174a2f2017a9044b6fd07a254f215",
                    "timestamp" : "0x0f6e",
                    "transactionsTrie" : "0xa2159087e1e7343321a8e5bd9d4c437a2c3fb17db561bf3ca104cd05426f1cd0",
                    "uncleHash" : "0x1dcc4de8dec75d7aab85b567b6ccd41ad312451b948a7413f0a142fd40d49347",
                    "baseFee" : "0x0453"
                },
                "transactions" : [
                    {
                        "data" : "0x",
                        "gasLimit" : "0xa860",
                        "nonce" : "0x05",
                        "to" : "0xcccccccccccccccccccccccccccccccccccccccc",
                        "r" : "0x8f1c900443f58e45fd2c7c39537984dc7d8246e995dbb4badd597eed00cb2854",
                        "s" : "0x0a10089bf2c2588a7cdb29fa00b1f3ce5a8d3094bdfe87a72a143702b029c43a",
                        "value" : "0x00",
                        "v" : "0x01",
                        "chainId" : "0x01",
                        "type" : "0x02",
                        "feeCap" : "0x07d0",
                        "tip" : "0x00",
                        "accessList" : [
                        ]
                    },
                    {
                        "data" : "0x",
                        "gasLimit" : "0x0264e0",
                        "nonce" : "0x06",
                        "to" : "0x1111111111111111111111111111111111111111",
                        "r" : "0xc59c7c7592220326ea7b77d2c1f56ee9c65a8ed3f530acdd49262a58a14f0250",
                        "s" : "0x44ecc099c1ce46257cebb8d40b19a0fc04696643b378758c0e1ad74f85157d4a",
                        "value" : "0x00",
                        "v" : "0x01",
                        "chainId" : "0x01",
                        "type" : "0x02",
                        "feeCap" : "0x07d0",
                        "tip" : "0x00",
                        "accessList" : [
                        ]
                    }
                ],
                "rlp" : "0xf902d4f901fba0b93de1acee09f367a1253d7edb17ea7a61dfa38912082ad31ef27da2df1b42e2a01dcc4de8dec75d7aab85b567b6ccd41ad312451b948a7413f0a142fd40d49347942adc25665018aa1fe0e6bc666dac8fc2697ff9baa0d977ddb18d7cc50ba3b38cdea5045e4a476174a2f2017a9044b6fd07a254f215a0a2159087e1e7343321a8e5bd9d4c437a2c3fb17db561bf3ca104cd05426f1cd0a027a730bd98d51b4d50707785f23033b868e048c5dee0a47bbea6ee44e2b15055b90100000000000000000000000000000000000000000000000000000000000000000000000000000000000000000000000000000000000000000000000000000000000000000000000000000000000000000000000000000000000000000000000000000000000000000000000000000000000000000000000000000000000000000000000000000000000000000000000000000000000000000000000000000000000000000000000000000000000000000000000000000000000000000000000000000000000000000000000000000000000000000000000000000000000000000000000000000000000000000000000000000000000000000000000000000000008302000003830186a083030d40820f6e42a00000000000000000000000000000000000000000000000000000000000000000880000000000000000820453f8d3b86702f8640105808207d082a86094cccccccccccccccccccccccccccccccccccccccc8080c001a08f1c900443f58e45fd2c7c39537984dc7d8246e995dbb4badd597eed00cb2854a00a10089bf2c2588a7cdb29fa00b1f3ce5a8d3094bdfe87a72a143702b029c43ab86802f8650106808207d0830264e09411111111111111111111111111111111111111118080c001a0c59c7c7592220326ea7b77d2c1f56ee9c65a8ed3f530acdd49262a58a14f0250a044ecc099c1ce46257cebb8d40b19a0fc04696643b378758c0e1ad74f85157d4ac0"
            },
            {
                "chainname" : "default",
                "blocknumber" : "4",
                "uncleHeaders" : [
                ],
                "blockHeader" : {
                    "bloom" : "0x00000000000000000000000000000000000000000000000000000000000000000000000000000000000000000000000000000000000000000000000000000000000000000000000000000000000000000000000000000000000000000000000000000000000000000000000000000000000000000000000000000000000000000000000000000000000000000000000000000000000000000000000000000000000000000000000000000000000000000000000000000000000000000000000000000000000000000000000000000000000000000000000000000000000000000000000000000000000000000000000000000000000000000000000000000000",
                    "coinbase" : "0x2adc25665018aa1fe0e6bc666dac8fc2697ff9ba",
                    "difficulty" : "0x020000",
                    "extraData" : "0x42",
                    "gasTarget" : "0x0186a0",
                    "gasUsed" : "0x030d40",
                    "hash" : "0x8b5c817100d7e01c3184854a4844a90144b50c0893a4b4e67f0dc5619bc06dce",
                    "mixHash" : "0x0000000000000000000000000000000000000000000000000000000000000000",
                    "nonce" : "0x0000000000000000",
                    "number" : "0x04",
                    "parentHash" : "0x37bfb92317e5808e7f09312cf7d00ea179cbe3a2004a02a8690dd22b77a3b536",
                    "receiptTrie" : "0x27a730bd98d51b4d50707785f23033b868e048c5dee0a47bbea6ee44e2b15055",
                    "stateRoot" : "0x596026f3df9b45e5da084ccb627a471e990446654b0f411d679b2899eb1b1166",
                    "timestamp" : "0x1356",
                    "transactionsTrie" : "0x8c71c8ad7907080b1dbb542d1961e5d0f2ce8807ec6415800cb532371b14ea11",
                    "uncleHash" : "0x1dcc4de8dec75d7aab85b567b6ccd41ad312451b948a7413f0a142fd40d49347",
                    "baseFee" : "0x04dd"
                },
                "transactions" : [
                    {
                        "data" : "0x",
                        "gasLimit" : "0xa860",
                        "nonce" : "0x07",
                        "to" : "0xcccccccccccccccccccccccccccccccccccccccc",
                        "r" : "0x666566d1cfa4edd52e3079750c16292f09b51df3ba63963d28276e383963de19",
                        "s" : "0x0dc42cbc4efd6f0eb45c352cc41a1f926bf98c527d091c18d990a2e0ef94d490",
                        "value" : "0x00",
                        "v" : "0x01",
                        "chainId" : "0x01",
                        "type" : "0x02",
                        "feeCap" : "0x07d0",
                        "tip" : "0x00",
                        "accessList" : [
                        ]
                    },
                    {
                        "data" : "0x",
                        "gasLimit" : "0x0264e0",
                        "nonce" : "0x08",
                        "to" : "0x1111111111111111111111111111111111111111",
                        "r" : "0xfb8e67c209cb98fb0a94beb129f5bfa22d539fcde673ad2987c149b99c6147d8",
                        "s" : "0x0465fd2cd343f67766238f36ea7d69c84ecd1d0a05c967f2f4c778f814d6f877",
                        "value" : "0x00",
                        "v" : "0x01",
                        "chainId" : "0x01",
                        "type" : "0x02",
                        "feeCap" : "0x07d0",
                        "tip" : "0x00",
                        "accessList" : [
                        ]
                    }
                ],
                "rlp" : "0xf902d4f901fba037bfb92317e5808e7f09312cf7d00ea179cbe3a2004a02a8690dd22b77a3b536a01dcc4de8dec75d7aab85b567b6ccd41ad312451b948a7413f0a142fd40d49347942adc25665018aa1fe0e6bc666dac8fc2697ff9baa0596026f3df9b45e5da084ccb627a471e990446654b0f411d679b2899eb1b1166a08c71c8ad7907080b1dbb542d1961e5d0f2ce8807ec6415800cb532371b14ea11a027a730bd98d51b4d50707785f23033b868e048c5dee0a47bbea6ee44e2b15055b90100000000000000000000000000000000000000000000000000000000000000000000000000000000000000000000000000000000000000000000000000000000000000000000000000000000000000000000000000000000000000000000000000000000000000000000000000000000000000000000000000000000000000000000000000000000000000000000000000000000000000000000000000000000000000000000000000000000000000000000000000000000000000000000000000000000000000000000000000000000000000000000000000000000000000000000000000000000000000000000000000000000000000000000000000000000008302000004830186a083030d4082135642a000000000000000000000000000000000000000000000000000000000000000008800000000000000008204ddf8d3b86702f8640107808207d082a86094cccccccccccccccccccccccccccccccccccccccc8080c001a0666566d1cfa4edd52e3079750c16292f09b51df3ba63963d28276e383963de19a00dc42cbc4efd6f0eb45c352cc41a1f926bf98c527d091c18d990a2e0ef94d490b86802f8650108808207d0830264e09411111111111111111111111111111111111111118080c001a0fb8e67c209cb98fb0a94beb129f5bfa22d539fcde673ad2987c149b99c6147d8a00465fd2cd343f67766238f36ea7d69c84ecd1d0a05c967f2f4c778f814d6f877c0"
            },
            {
                "chainname" : "default",
                "blocknumber" : "5",
                "uncleHeaders" : [
                ],
                "blockHeader" : {
                    "bloom" : "0x00000000000000000000000000000000000000000000000000000000000000000000000000000000000000000000000000000000000000000000000000000000000000000000000000000000000000000000000000000000000000000000000000000000000000000000000000000000000000000000000000000000000000000000000000000000000000000000000000000000000000000000000000000000000000000000000000000000000000000000000000000000000000000000000000000000000000000000000000000000000000000000000000000000000000000000000000000000000000000000000000000000000000000000000000000000",
                    "coinbase" : "0x2adc25665018aa1fe0e6bc666dac8fc2697ff9ba",
                    "difficulty" : "0x020000",
                    "extraData" : "0x42",
                    "gasTarget" : "0x0186a0",
                    "gasUsed" : "0x030d40",
                    "hash" : "0x99bc56081a91f1cc648938c4960b95678c161809002890e3a23ba067d61f3859",
                    "mixHash" : "0x0000000000000000000000000000000000000000000000000000000000000000",
                    "nonce" : "0x0000000000000000",
                    "number" : "0x05",
                    "parentHash" : "0x8b5c817100d7e01c3184854a4844a90144b50c0893a4b4e67f0dc5619bc06dce",
                    "receiptTrie" : "0x27a730bd98d51b4d50707785f23033b868e048c5dee0a47bbea6ee44e2b15055",
                    "stateRoot" : "0xeeedc52a38aff204c464307a327dc863d62c2db26c23645021fbdd91f08bc109",
                    "timestamp" : "0x173e",
                    "transactionsTrie" : "0x692ddaaa1d79a5be9cd878e4518bb9b04176fe39c3e3bc07bd7679ea18987437",
                    "uncleHash" : "0x1dcc4de8dec75d7aab85b567b6ccd41ad312451b948a7413f0a142fd40d49347",
                    "baseFee" : "0x0578"
                },
                "transactions" : [
                    {
                        "data" : "0x",
                        "gasLimit" : "0xa860",
                        "nonce" : "0x09",
                        "to" : "0xcccccccccccccccccccccccccccccccccccccccc",
                        "r" : "0xe8878e8017308bb451ed822f56e1518f817af0953f586b728bbbf20e0caa2bdf",
                        "s" : "0x4b95fe6b029ad286163b35d506de4bde3c3f58e2dfda13e9d7ec69f7ecd1502f",
                        "value" : "0x00",
                        "v" : "0x00",
                        "chainId" : "0x01",
                        "type" : "0x02",
                        "feeCap" : "0x07d0",
                        "tip" : "0x00",
                        "accessList" : [
                        ]
                    },
                    {
                        "data" : "0x",
                        "gasLimit" : "0x0264e0",
                        "nonce" : "0x0a",
                        "to" : "0x1111111111111111111111111111111111111111",
                        "r" : "0x19bd86c05403071457784ff3fedf43fdefbe00b166532c27d926434cbe29f92b",
                        "s" : "0x5c8f883cd29b9e6851543d5a303549cd688a27c246e07976dc228e61128538e0",
                        "value" : "0x00",
                        "v" : "0x01",
                        "chainId" : "0x01",
                        "type" : "0x02",
                        "feeCap" : "0x07d0",
                        "tip" : "0x00",
                        "accessList" : [
                        ]
                    }
                ],
                "rlp" : "0xf902d4f901fba08b5c817100d7e01c3184854a4844a90144b50c0893a4b4e67f0dc5619bc06dcea01dcc4de8dec75d7aab85b567b6ccd41ad312451b948a7413f0a142fd40d49347942adc25665018aa1fe0e6bc666dac8fc2697ff9baa0eeedc52a38aff204c464307a327dc863d62c2db26c23645021fbdd91f08bc109a0692ddaaa1d79a5be9cd878e4518bb9b04176fe39c3e3bc07bd7679ea18987437a027a730bd98d51b4d50707785f23033b868e048c5dee0a47bbea6ee44e2b15055b90100000000000000000000000000000000000000000000000000000000000000000000000000000000000000000000000000000000000000000000000000000000000000000000000000000000000000000000000000000000000000000000000000000000000000000000000000000000000000000000000000000000000000000000000000000000000000000000000000000000000000000000000000000000000000000000000000000000000000000000000000000000000000000000000000000000000000000000000000000000000000000000000000000000000000000000000000000000000000000000000000000000000000000000000000000000008302000005830186a083030d4082173e42a00000000000000000000000000000000000000000000000000000000000000000880000000000000000820578f8d3b86702f8640109808207d082a86094cccccccccccccccccccccccccccccccccccccccc8080c080a0e8878e8017308bb451ed822f56e1518f817af0953f586b728bbbf20e0caa2bdfa04b95fe6b029ad286163b35d506de4bde3c3f58e2dfda13e9d7ec69f7ecd1502fb86802f865010a808207d0830264e09411111111111111111111111111111111111111118080c001a019bd86c05403071457784ff3fedf43fdefbe00b166532c27d926434cbe29f92ba05c8f883cd29b9e6851543d5a303549cd688a27c246e07976dc228e61128538e0c0"
            },
            {
                "chainname" : "default",
                "blocknumber" : "6",
                "uncleHeaders" : [
                ],
                "blockHeader" : {
                    "bloom" : "0x00000000000000000000000000000000000000000000000000000000000000000000000000000000000000000000000000000000000000000000000000000000000000000000000000000000000000000000000000000000000000000000000000000000000000000000000000000000000000000000000000000000000000000000000000000000000000000000000000000000000000000000000000000000000000000000000000000000000000000000000000000000000000000000000000000000000000000000000000000000000000000000000000000000000000000000000000000000000000000000000000000000000000000000000000000000",
                    "coinbase" : "0x2adc25665018aa1fe0e6bc666dac8fc2697ff9ba",
                    "difficulty" : "0x020000",
                    "extraData" : "0x42",
                    "gasTarget" : "0x0186a0",
                    "gasUsed" : "0x030d40",
                    "hash" : "0x50ac693861ee1e90938e0328922463105cdc12f28649e4bef4e75d683f91a382",
                    "mixHash" : "0x0000000000000000000000000000000000000000000000000000000000000000",
                    "nonce" : "0x0000000000000000",
                    "number" : "0x06",
                    "parentHash" : "0x99bc56081a91f1cc648938c4960b95678c161809002890e3a23ba067d61f3859",
                    "receiptTrie" : "0x27a730bd98d51b4d50707785f23033b868e048c5dee0a47bbea6ee44e2b15055",
                    "stateRoot" : "0x2da6952c5b65e186cc06a94347d439373c8af14a5c7aa3a3966a4a7e31d5e232",
                    "timestamp" : "0x1b26",
                    "transactionsTrie" : "0x5607290945dd945a18ed82d02f4c3314f1738f5c5a40fa2241753a37fee6d664",
                    "uncleHash" : "0x1dcc4de8dec75d7aab85b567b6ccd41ad312451b948a7413f0a142fd40d49347",
                    "baseFee" : "0x0627"
                },
                "transactions" : [
                    {
                        "data" : "0x",
                        "gasLimit" : "0xa860",
                        "nonce" : "0x0b",
                        "to" : "0xcccccccccccccccccccccccccccccccccccccccc",
                        "r" : "0x68f5d5db0a5c787c38187ac0cc82323c5e64b08f27d1f5ade0e1fe65933050d5",
                        "s" : "0x118d55fc5c11871c62d96fe5d2dd934b63e942eec91c1890da4490ab68e24117",
                        "value" : "0x00",
                        "v" : "0x00",
                        "chainId" : "0x01",
                        "type" : "0x02",
                        "feeCap" : "0x07d0",
                        "tip" : "0x00",
                        "accessList" : [
                        ]
                    },
                    {
                        "data" : "0x",
                        "gasLimit" : "0x0264e0",
                        "nonce" : "0x0c",
                        "to" : "0x1111111111111111111111111111111111111111",
                        "r" : "0xa61805910b55ee6ad57eca3b06a7a99710219db5061fc69ee36634135ab5ce04",
                        "s" : "0x14133722d3c991f3b85b50ad28aecee58be3eae26f7a224b6c9b313070259572",
                        "value" : "0x00",
                        "v" : "0x01",
                        "chainId" : "0x01",
                        "type" : "0x02",
                        "feeCap" : "0x07d0",
                        "tip" : "0x00",
                        "accessList" : [
                        ]
                    }
                ],
                "rlp" : "0xf902d4f901fba099bc56081a91f1cc648938c4960b95678c161809002890e3a23ba067d61f3859a01dcc4de8dec75d7aab85b567b6ccd41ad312451b948a7413f0a142fd40d49347942adc25665018aa1fe0e6bc666dac8fc2697ff9baa02da6952c5b65e186cc06a94347d439373c8af14a5c7aa3a3966a4a7e31d5e232a05607290945dd945a18ed82d02f4c3314f1738f5c5a40fa2241753a37fee6d664a027a730bd98d51b4d50707785f23033b868e048c5dee0a47bbea6ee44e2b15055b90100000000000000000000000000000000000000000000000000000000000000000000000000000000000000000000000000000000000000000000000000000000000000000000000000000000000000000000000000000000000000000000000000000000000000000000000000000000000000000000000000000000000000000000000000000000000000000000000000000000000000000000000000000000000000000000000000000000000000000000000000000000000000000000000000000000000000000000000000000000000000000000000000000000000000000000000000000000000000000000000000000000000000000000000000000000008302000006830186a083030d40821b2642a00000000000000000000000000000000000000000000000000000000000000000880000000000000000820627f8d3b86702f864010b808207d082a86094cccccccccccccccccccccccccccccccccccccccc8080c080a068f5d5db0a5c787c38187ac0cc82323c5e64b08f27d1f5ade0e1fe65933050d5a0118d55fc5c11871c62d96fe5d2dd934b63e942eec91c1890da4490ab68e24117b86802f865010c808207d0830264e09411111111111111111111111111111111111111118080c001a0a61805910b55ee6ad57eca3b06a7a99710219db5061fc69ee36634135ab5ce04a014133722d3c991f3b85b50ad28aecee58be3eae26f7a224b6c9b313070259572c0"
            },
            {
                "chainname" : "default",
                "blocknumber" : "7",
                "uncleHeaders" : [
                ],
                "blockHeader" : {
                    "bloom" : "0x00000000000000000000000000000000000000000000000000000000000000000000000000000000000000000000000000000000000000000000000000000000000000000000000000000000000000000000000000000000000000000000000000000000000000000000000000000000000000000000000000000000000000000000000000000000000000000000000000000000000000000000000000000000000000000000000000000000000000000000000000000000000000000000000000000000000000000000000000000000000000000000000000000000000000000000000000000000000000000000000000000000000000000000000000000000",
                    "coinbase" : "0x2adc25665018aa1fe0e6bc666dac8fc2697ff9ba",
                    "difficulty" : "0x020000",
                    "extraData" : "0x42",
                    "gasTarget" : "0x0186a0",
                    "gasUsed" : "0x030d40",
                    "hash" : "0x1201d199c8c70692d87bb7dfe3d3d2536e579821eb3f11dd388c144e441da940",
                    "mixHash" : "0x0000000000000000000000000000000000000000000000000000000000000000",
                    "nonce" : "0x0000000000000000",
                    "number" : "0x07",
                    "parentHash" : "0x50ac693861ee1e90938e0328922463105cdc12f28649e4bef4e75d683f91a382",
                    "receiptTrie" : "0x27a730bd98d51b4d50707785f23033b868e048c5dee0a47bbea6ee44e2b15055",
                    "stateRoot" : "0x8a0af2f39fc748f5362e4bf8c9b29795c779d0cc841c0aae26a57ee70eac6d84",
                    "timestamp" : "0x1f0e",
                    "transactionsTrie" : "0x958e9fc12dc98717c80494f14bdb5ed942c08654ad92b7858234d496c13a9bb1",
                    "uncleHash" : "0x1dcc4de8dec75d7aab85b567b6ccd41ad312451b948a7413f0a142fd40d49347",
                    "baseFee" : "0x06eb"
                },
                "transactions" : [
                    {
                        "data" : "0x",
                        "gasLimit" : "0xa860",
                        "nonce" : "0x0d",
                        "to" : "0xcccccccccccccccccccccccccccccccccccccccc",
                        "r" : "0xd296a053a0b0248552b04ead0792d0b5128c5c3c2b1640b2c34ff10d9eb2c0b3",
                        "s" : "0x7159583bf8f8adb48e373fdf632db80d3c73ebddc29ae8751a6bf1f9dfbf6298",
                        "value" : "0x00",
                        "v" : "0x01",
                        "chainId" : "0x01",
                        "type" : "0x02",
                        "feeCap" : "0x07d0",
                        "tip" : "0x00",
                        "accessList" : [
                        ]
                    },
                    {
                        "data" : "0x",
                        "gasLimit" : "0x0264e0",
                        "nonce" : "0x0e",
                        "to" : "0x1111111111111111111111111111111111111111",
                        "r" : "0x72094f62c821be84b3a2e7365090bc467849826fa138478a8861069f3bcaded0",
                        "s" : "0x1dc49ee608c6e7bcd7712061c16ab2d763ccba8de53ff751c0ddb50886e8377a",
                        "value" : "0x00",
                        "v" : "0x00",
                        "chainId" : "0x01",
                        "type" : "0x02",
                        "feeCap" : "0x07d0",
                        "tip" : "0x00",
                        "accessList" : [
                        ]
                    }
                ],
                "rlp" : "0xf902d4f901fba050ac693861ee1e90938e0328922463105cdc12f28649e4bef4e75d683f91a382a01dcc4de8dec75d7aab85b567b6ccd41ad312451b948a7413f0a142fd40d49347942adc25665018aa1fe0e6bc666dac8fc2697ff9baa08a0af2f39fc748f5362e4bf8c9b29795c779d0cc841c0aae26a57ee70eac6d84a0958e9fc12dc98717c80494f14bdb5ed942c08654ad92b7858234d496c13a9bb1a027a730bd98d51b4d50707785f23033b868e048c5dee0a47bbea6ee44e2b15055b90100000000000000000000000000000000000000000000000000000000000000000000000000000000000000000000000000000000000000000000000000000000000000000000000000000000000000000000000000000000000000000000000000000000000000000000000000000000000000000000000000000000000000000000000000000000000000000000000000000000000000000000000000000000000000000000000000000000000000000000000000000000000000000000000000000000000000000000000000000000000000000000000000000000000000000000000000000000000000000000000000000000000000000000000000000000008302000007830186a083030d40821f0e42a000000000000000000000000000000000000000000000000000000000000000008800000000000000008206ebf8d3b86702f864010d808207d082a86094cccccccccccccccccccccccccccccccccccccccc8080c001a0d296a053a0b0248552b04ead0792d0b5128c5c3c2b1640b2c34ff10d9eb2c0b3a07159583bf8f8adb48e373fdf632db80d3c73ebddc29ae8751a6bf1f9dfbf6298b86802f865010e808207d0830264e09411111111111111111111111111111111111111118080c080a072094f62c821be84b3a2e7365090bc467849826fa138478a8861069f3bcaded0a01dc49ee608c6e7bcd7712061c16ab2d763ccba8de53ff751c0ddb50886e8377ac0"
            },
            {
                "chainname" : "default",
                "blocknumber" : "8",
                "uncleHeaders" : [
                ],
                "blockHeader" : {
                    "bloom" : "0x00000000000000000000000000000000000000000000000000000000000000000000000000000000000000000000000000000000000000000000000000000000000000000000000000000000000000000000000000000000000000000000000000000000000000000000000000000000000000000000000000000000000000000000000000000000000000000000000000000000000000000000000000000000000000000000000000000000000000000000000000000000000000000000000000000000000000000000000000000000000000000000000000000000000000000000000000000000000000000000000000000000000000000000000000000000",
                    "coinbase" : "0x2adc25665018aa1fe0e6bc666dac8fc2697ff9ba",
                    "difficulty" : "0x020000",
                    "extraData" : "0x42",
                    "gasTarget" : "0x0186a0",
                    "gasUsed" : "0x030d40",
                    "hash" : "0xa07db809e8e602efe35a2043f8f6c1050637fae464be55f1e48b81598ba5f204",
                    "mixHash" : "0x0000000000000000000000000000000000000000000000000000000000000000",
                    "nonce" : "0x0000000000000000",
                    "number" : "0x08",
                    "parentHash" : "0x1201d199c8c70692d87bb7dfe3d3d2536e579821eb3f11dd388c144e441da940",
                    "receiptTrie" : "0x27a730bd98d51b4d50707785f23033b868e048c5dee0a47bbea6ee44e2b15055",
                    "stateRoot" : "0x11033a86dd970acdda7f34cd6bfad0df55622b7fe52621be7992ad9dc9e611d0",
                    "timestamp" : "0x22f6",
                    "transactionsTrie" : "0xa1a4722d060cd96ddd240199344fd73fb8dd6bc87a24566fdc0d0f69c3e7aa01",
                    "uncleHash" : "0x1dcc4de8dec75d7aab85b567b6ccd41ad312451b948a7413f0a142fd40d49347",
                    "baseFee" : "0x07c8"
                },
                "transactions" : [
                    {
                        "data" : "0x",
                        "gasLimit" : "0xa860",
                        "nonce" : "0x0f",
                        "to" : "0xcccccccccccccccccccccccccccccccccccccccc",
                        "r" : "0xb7a74bb0fc60ced26279e537de156b0ee09bcbd52f42756cea84a7b49e0f33ee",
                        "s" : "0x0ff2946f663029c79c0fd7f1f9db2994f3ce33632864360e3fa75664a70f6b",
                        "value" : "0x00",
                        "v" : "0x00",
                        "chainId" : "0x01",
                        "type" : "0x02",
                        "feeCap" : "0x07d0",
                        "tip" : "0x00",
                        "accessList" : [
                        ]
                    },
                    {
                        "data" : "0x",
                        "gasLimit" : "0x0264e0",
                        "nonce" : "0x10",
                        "to" : "0x1111111111111111111111111111111111111111",
                        "r" : "0x5a8e05869af06a5e3a5f59dc2907a8ff20ffac1774ffc2b54e6e42c83e3fc549",
                        "s" : "0x72c979c2eb697ec06064e1db1497bd1ef75de67e33253511dc894ee56e0ceed1",
                        "value" : "0x00",
                        "v" : "0x00",
                        "chainId" : "0x01",
                        "type" : "0x02",
                        "feeCap" : "0x07d0",
                        "tip" : "0x00",
                        "accessList" : [
                        ]
                    }
                ],
                "rlp" : "0xf902d3f901fba01201d199c8c70692d87bb7dfe3d3d2536e579821eb3f11dd388c144e441da940a01dcc4de8dec75d7aab85b567b6ccd41ad312451b948a7413f0a142fd40d49347942adc25665018aa1fe0e6bc666dac8fc2697ff9baa011033a86dd970acdda7f34cd6bfad0df55622b7fe52621be7992ad9dc9e611d0a0a1a4722d060cd96ddd240199344fd73fb8dd6bc87a24566fdc0d0f69c3e7aa01a027a730bd98d51b4d50707785f23033b868e048c5dee0a47bbea6ee44e2b15055b90100000000000000000000000000000000000000000000000000000000000000000000000000000000000000000000000000000000000000000000000000000000000000000000000000000000000000000000000000000000000000000000000000000000000000000000000000000000000000000000000000000000000000000000000000000000000000000000000000000000000000000000000000000000000000000000000000000000000000000000000000000000000000000000000000000000000000000000000000000000000000000000000000000000000000000000000000000000000000000000000000000000000000000000000000000000008302000008830186a083030d408222f642a000000000000000000000000000000000000000000000000000000000000000008800000000000000008207c8f8d2b86602f863010f808207d082a86094cccccccccccccccccccccccccccccccccccccccc8080c080a0b7a74bb0fc60ced26279e537de156b0ee09bcbd52f42756cea84a7b49e0f33ee9f0ff2946f663029c79c0fd7f1f9db2994f3ce33632864360e3fa75664a70f6bb86802f8650110808207d0830264e09411111111111111111111111111111111111111118080c080a05a8e05869af06a5e3a5f59dc2907a8ff20ffac1774ffc2b54e6e42c83e3fc549a072c979c2eb697ec06064e1db1497bd1ef75de67e33253511dc894ee56e0ceed1c0"
            }
        ],
        "postState" : {
            "0x1111111111111111111111111111111111111111" : {
                "code" : "0xfe",
                "nonce" : "0x01",
                "balance" : "0x010000000000",
                "storage" : {
                }
            },
            "0x2adc25665018aa1fe0e6bc666dac8fc2697ff9ba" : {
                "code" : "0x",
                "nonce" : "0x00",
                "balance" : "0xde0b6b3a76400000",
                "storage" : {
                }
            },
            "0xa94f5374fce5edbc8e2a8697c15331677e6ebf0b" : {
                "code" : "0x",
                "nonce" : "0x00",
                "balance" : "0x010000000000000000",
                "storage" : {
                }
            },
            "0xcccccccccccccccccccccccccccccccccccccccc" : {
                "code" : "0x3a4355",
                "nonce" : "0x01",
                "balance" : "0x010000000000",
                "storage" : {
                    "0x01" : "0x036b",
                    "0x02" : "0x03d8",
                    "0x03" : "0x0453",
                    "0x04" : "0x04dd",
                    "0x05" : "0x0578",
                    "0x06" : "0x0627",
                    "0x07" : "0x06eb",
                    "0x08" : "0x07c8"
                }
            },
            "0xd02d72e067e77158444ef2020ff2d325f929b363" : {
                "code" : "0x",
                "nonce" : "0x11",
                "balance" : "0xffffffff7d7a4dc0",
                "storage" : {
                }
            }
        },
        "lastblockhash" : "0xa07db809e8e602efe35a2043f8f6c1050637fae464be55f1e48b81598ba5f204"
    }
}